:020000040000FA
:06000000EBEF03F012001B
:020006000000F8
:0600080004EF04F01200F9
:02000E001200DE
:060018000CEF04F01200E1
:02001E000001DF
:10002000776B0F011E0E546F0201400E096F200EF8
:100030000A6F020E0B6F880E086F0201200E0E6F02
:10004000020E0F6F400E0C6F1200550EA76EAA0E17
:10005000A76EA68212000201226B010E236F12000E
:1000600022C278F023C279F00001756B02012151A0
:100070000001755D2FE20201245109E10001FF0E2C
:10008000D88078555F0E795502E2766915D075C033
:1000900000F0016A026A020122510024F36E23512A
:1000A0000120F46E24510220F86EF4CFF7FFF3CF55
:1000B000F6FF0800F5CF76F000017551EA6A250FCA
:1000C000E96E020EEA2276C0EFFF752B782B000E48
:1000D0007923CCD7F86A1200F00E02012217840EA1
:1000E000A66E0001756B020121510001755D26E2CB
:1000F0007551EA6A250FE96E020EEA22EFCF03F08E
:1001000075C000F0016A026A020122510024F36EF8
:1001100023510120F46E24510220F86EF4CFF7FF32
:10012000F3CFF6FF03C0F5FF0C000F0E00017515AD
:100130000F0801E18ADF0001752BD5D71200940E5C
:10014000A66E0001756B020121510001755D1EE272
:100150007551006E016A060ED89000360136E8042B
:10016000FBE1026A01BE0268020122510024F36E23
:1001700023510120F46E24510220F86EF4CFF7FFD2
:10018000F3CFF6FF62DF0001752BDDD7F86A1200AE
:10019000A66A0001756B020121510001755D10E234
:1001A0000201225100017525A96EA6807551EA6AE7
:1001B000250FE96E020EEA22A8CFEFFF752BEBD7D1
:1001C00012000001756B020121510001755D15E2FD
:1001D0000201225100017525A96E7551EA6A250FA9
:1001E000E96E020EEA22EF50A86E040EA66E2DDF15
:1001F000A6B2FED70001752BE6D71200C40EA66E7C
:100200000001756B020121510001755D21E27551FC
:10021000EA6A250FE96E020EEA22EFCF03F075C0FD
:1002200000F0016A026A020122510024F36E235198
:100230000120F46E24510220F86EF4CFF7FFF3CFC3
:10024000F6FF03C0F5FF0C0000DF0001752BDAD7C5
:10025000F86A120080D8060E00017A5D03E364504C
:10026000020B01E077D00001770511E102010CBF1C
:100270000DD00201400E096F400E02010817020165
:10028000087D880E020108130001776B63D002011C
:1002900008BF60D00001756B02012051320A45E0B1
:1002A000CD0A34E0F80A2DE0020A26E0010A1FE038
:1002B000070A18E0010A11E0030A0AE0070A08E049
:1002C000060A01E036D0C7DE0001040E756F32D099
:1002D000C7DE050E000175272DD0FEDE0001010EE0
:1002E000756F28D02CDF0001010E756F23D050DF11
:1002F000050E000175271ED064DF0001010E756F29
:1003000019D07CDF0001010E756F14D064960001D6
:10031000786B796B00017807000E795B00017851EA
:10032000791101E0F7D7FF0005D00001010E756FCC
:1003300001D000D00001010E776F000175510AE075
:1003400075C00DF2400E02010C1702010C7D880EE3
:1003500002010C131200050E00017A5D02E28B9A75
:0603600012008B8A12005E
:0A036600635002E0000E01D0010E0A
:1003700000090BE0020100513C0BE842E8420D0885
:1003800002E1CEEF01F0D7EF01F0635002E0000E82
:1003900001D0010E040901E019D812000001606BC0
:1003A000616B666B676BAFEC02F05CEF02F0020E04
:1003B0000001605D09E15FD8020100BD02D0C80EF6
:1003C00001D0880E006F1200A1EF02F0040E0001B0
:1003D0007A5D0CE112C25CFF0F015C51000803E280
:1003E0000001050E02D00001030E7A6F00016005C6
:1003F00009E10AD8020104BD02D0C80E01D0880E5E
:10040000046F1200A1EF02F00001080E665D000EFD
:10041000675903E266C069F002D0080E696F69C0CF
:1004200005F26951006E016A0050665F0150675B1A
:10043000180E646F020E656F69511CE000017BA30A
:1004400007D062C0F6FF63C0F7FF0800F55005D083
:1004500062C0E9FF63C0EAFFEF5064C0E9FF65C016
:10046000EAFFEF6E0001622B000E6323642B65230D
:100470006907E2D7120001C26AF000016A516625DD
:10048000666F000E6721676F180E626F020E636F52
:100490006A5111E062C0E9FF63C0EAFFEF5064C037
:1004A000E9FF65C0EAFFEF6E642B000E6523622B47
:1004B00063236A07EDD71200000161510BE10201CD
:1004C000080E016F100E026F020E036F840E006F94
:1004D000020123D0020110AF22D0000166510201B7
:1004E000165D000167510201175904E216C266F059
:1004F00017C267F089DF0001010E606F0201080E6C
:10050000016F100E026F020E036F800E006F02016A
:10051000180E066F020E076FC80E046F10D0000190
:10052000020E606F0201056BC80E046F0201080E17
:10053000016F180E026F020E036FC80E006F6498F1
:1005400012000001606B0201080E016F100E026FB5
:0E055000020E036F880E006F0201046B120092
:02055E00020198
:100560001051600BE842E842E842E842E8420009E4
:1005700001E012001151080A39E0010A35E00F0AC2
:100580000AE0030A01E012000001010E616F0001A0
:10059000040E7A6F12000001010E616F0201130553
:1005A00007E10001780E626F070E636F120E13D021
:1005B000020E135D07E100018A0E626F070E636F82
:1005C000200E09D0030E135D0AE10001AA0E626F2E
:1005D000070E636F040E0001666F676B02D00001A7
:1005E000616B00017B83120004EF03F00001010E38
:1005F000616F00017C0E626F000E636F00017B93E0
:100600000001010E666F12000001010E616F12C23F
:100610007CF00201125104E10001050E7A6F120014
:0A0620000001060E7A6F0FEF00F0E4
:06062A00080E646E64BAC4
:10063000FED7626A110E606E0001020E7A6F120020
:100640006250040B06E06050040B03E06492609477
:1006500062946250010B04E06050010B01E029D864
:100660006250100B09E06050100B06E06084629845
:100670006482A0840300A1946250200B0BE06050C0
:10068000200B08E00F0153A104D0A1EC02F00F01F0
:100690005391629A030E00017A5D01E209D0625023
:1006A000080B06E06050080B03E0B3EC01F0629623
:1006B0001200626A7B0E606E0F015C6B160E536F48
:1006C00062A602D06296FCD76498A1EC02F0000109
:0A06D0007C6B0001030E7A6F12002C
:0606DA00060EF66E000E94
:1006E000F76E000EF86E00010900F550706F0900FA
:1006F000F550716F03E1706701D03DD00900F550EE
:100700006B6F0900F5506C6F0900F5506D6F0900B3
:100710000900F550E96E0900F550EA6E090009007C
:100720000900F5506E6F0900F5506F6F0900090060
:10073000F6CF72F0F7CF73F0F8CF74F06BC0F6FF1E
:100740006CC0F7FF6DC0F8FF00016E5302E16F53FC
:1007500007E00900F550EE6E6E07F8E26F07F9D773
:1007600072C0F6FF73C0F7FF74C0F8FF0001700796
:08077000000E715BBFD71200FF
:0807780012010002000000085C
:10078000D8048CFF030100000001090220000101D0
:100790000080320904000002000000000705010289
:0E07A000400000070581024000000403090428
:0207AE00D70E64
:1007B000946E8B968A8E938EF19E81AE02D000EF5E
:1007C00004F0140E616E15EC03F020EC03F02AEC3B
:0607D00001F0FBD712004E
:0A07D60011EE00F021EE00F0F86AC9
:1007E000059C6DEC03F007EC00F0D7EC03F0FBD7B1
:0207F0001200F5
:0E07F20000EE00F00F0EEE6AEA62FDD7120074
:00000001FF
